:020000040800F2
:1000000040040020A101000871090008A3030008B2
:100010006D090008E9010008C10D0008000000009A
:100020000000000000000000000000005D0B000860
:10003000ED01000800000000730900084D0C0008E5
:10004000BB010008BB010008BB010008BB010008A0
:10005000BB010008BB010008BB010008BB01000890
:10006000BB010008BB010008BB010008BB01000880
:10007000BB010008BB010008BB010008BB01000870
:10008000BB010008BB010008BB010008BB01000860
:10009000BB010008BB010008BB010008BB01000850
:1000A000BB010008BB010008BB010008BB01000840
:1000B000BB010008BB010008BB010008BB01000830
:1000C000BB010008BB010008BB010008BB01000820
:1000D000BB010008BB010008BB010008BB01000810
:1000E000BB010008BB010008BB010008BB01000800
:1000F000BB010008BB010008BB010008BB010008F0
:10010000BB010008BB010008BB010008BB010008DF
:10011000BB010008BB010008BB010008BB010008CF
:10012000BB010008BB010008BB010008BB010008BF
:10013000BB010008BB010008BB010008BB010008AF
:10014000BB010008BB010008BB010008BB0100089F
:10015000BB010008BB010008BB010008BB0100088F
:10016000BB010008BB010008BB010008BB0100087F
:10017000BB010008BB010008BB010008BB0100086F
:10018000BB010008BB010008DFF810D000F01AF82E
:1001900000480047E30D0008AFF300804004002052
:1001A0000648804706480047FEE7FEE7FEE7FEE711
:1001B000FEE7FEE7FEE7FEE7FEE7FEE7550C000878
:1001C00089010008064C074D06E0E06840F0010395
:1001D00094E8070098471034AC42F6D3FFF7D8FFF5
:1001E000F40D0008140E000800BFFEE77047000081
:1001F00030B5144800684FF47A72B0FBF2F1481E33
:10020000B0F1807F00D31BE0481E4FF0E022506128
:1002100050170F22002807DA13071D0E0A4B00F0B3
:100220000F04241F1D5503E013071C0E074B1C541D
:1002300000BF00204FF0E02290610720106100BF56
:1002400030BD00000800002018ED00E000E400E0F0
:1002500070B504461E2094FBF0F594FBF0F100FB12
:10026000114604E047F2305000F00CF86D1E002DEE
:10027000F8D12EB14FF47A7106FB01F000F002F8CC
:1002800070BD000070B5034600224FF0E02675698E
:100290000D4E366803FB06F44FF0E026B16910E01E
:1002A0004FF0E026B06988420BD0884202D20E1A85
:1002B000324402E02E1A0E4432440146A24200D3D8
:1002C00000E0EDE700BF70BD00000020F0B50A4679
:1002D00000210023002400BF3DE0012505FA01F3C1
:1002E000156805EA03049C4234D105684F000326D3
:1002F000BE40B543056015794E00B54006683543EC
:1003000005601579012D02D01579022D16D1856869
:100310004F000326BE40B543856055794E00B54079
:10032000866835438560456801268E40B543456043
:10033000456896798E40B6B235434560C5684F0032
:100340000326BE40B543C560D5794E00B540C668AA
:100350003543C560491C1029BFD3F0BDF0B500235B
:1003600000244D07ED0E02FA05F3CE1000F1200532
:1003700055F826504E07F70E0F26BE40B543CF1056
:1003800000F1200646F82750CE1000F1200555F860
:10039000265045EA0304CE1000F1200545F826401A
:1003A000F0BD00BFFEE7000070B504461648408867
:1003B000401E83B214480088401E82B200210846C5
:1003C00000F040FA00201149086001201049C1F8EE
:1003D000B80200250FE0002607E0201200F0A8FB7D
:1003E000E0B200F0A5FB701C86B207480088B0425E
:1003F000F3DC681C85B204484088A842EBDC01208D
:100400000249086070BD00002C000020BC82404200
:10041000008040421CB50121022000F0ABFA4FF4ED
:100420007040009001208DF8040003208DF8050035
:1004300000208DF8060001208DF80700694602486B
:10044000FFF744FF1CBD00000004024000B59BB054
:1004500000F028F9FFF7DEFF00F010F9CF2000F0E0
:100460007BF96EA000681A9003211AA800F064FAC4
:10047000ED2000F071F96AA000681990042119A814
:1004800000F05AFAE82000F067F966A000681890BA
:10049000032118A800F050FACB2000F05DF962A10A
:1004A00003C9CDE91601052116A800F045FAF72089
:1004B00000F052F95EA000681590012115A800F027
:1004C0003BFAEA2000F048F900201490022114A819
:1004D00000F032FAC02000F03FF956A000681390F7
:1004E000012113A800F028FAC12000F035F90020FE
:1004F0001290012112A800F01FFAC52000F02CF97B
:100500004DA000681190022111A800F015FAC72033
:1005100000F022F949A000681090012110A800F015
:100520000BFA362000F018F945A000680F90012161
:100530000FA800F001FA3A2000F00EF941A000687F
:100540000E9001210EA800F0F7F9B12000F004F997
:100550003DA000680D9002210DA800F0EDF9B62035
:1005600000F0FAF839A000680C9002210CA800F005
:10057000E3F9F22000F0F0F800200B9001210BA825
:1005800000F0DAF9262000F0E7F831A000680A90C0
:1005900001210AA800F0D0F9E02000F0DDF82DA03C
:1005A00090E80E00C068CDE90723069109900F215D
:1005B00006A800F0C1F9E12000F0CEF829A30FCB86
:1005C000CDE90423CDE902010F2102A800F0B4F91E
:1005D0002B2000F0C1F827A000680190042101A899
:1005E00000F0AAF92A2000F0B7F823A000680090D4
:1005F0000421684600F0A0F9112000F0ADF8782041
:10060000FFF726FE292000F0A7F8002000F0B8F838
:100610004FF47840FFF7C8FE1BB000BD00C93000A2
:100620006403128185107A00392C00340200000026
:10063000200000001B00000030300000B700000068
:100640000800000055000000001A00000AA2000087
:10065000010000000F2A28080E0854A9430A0F00C1
:10066000000000000015170711062B563C05100F5F
:100670003F3F0F000000013F000000EF10B50020D9
:10068000064908606420FFF7E3FD01200449C1F832
:10069000B0023220FFF7DCFD10BD0000B082404206
:1006A0000080404200B587B00121022000F062F9CD
:1006B0000121080300F07EF93820059002208DF812
:1006C000180000208DF81A0003208DF81900012071
:1006D0008DF81B0005A91E48FFF7F8FD0522032130
:1006E0001B48FFF73BFE052204211948FFF736FEA1
:1006F000052211461648FFF731FE0121080300F0DC
:1007000069F900214FF4805000F064F90020ADF841
:1007100000004FF48270ADF802000020ADF8040034
:10072000ADF80600ADF808004FF40070ADF80A000F
:100730000020ADF80E000720ADF81000694605480E
:1007400000F0D8F90121034800F0C8F907B000BD56
:10075000000402400030014010B504460020064964
:1007600008600649C1F8B802204600F0E1F901200E
:100770000149086010BD0000BC8240420080404238
:100780001FB504462A202A4948812B2088812C2025
:10079000088134B1012C15D0022C24D0032C44D173
:1007A00032E0F020224908804FF4A07048803620C3
:1007B000FFF7D2FF1FA000680390012103A800F0FB
:1007C000BBF832E04FF4A07019490880F02048804F
:1007D0003620FFF7C1FF18A000680290012102A88F
:1007E00000F0AAF821E0F020114908804FF4A07031
:1007F00048803620FFF7B0FF10A00068019001216B
:1008000001A800F099F810E04FF4A07008490880A2
:10081000F02048803620FFF79FFF09A00068009075
:100820000121684600F088F800BF00BF1FBD00002E
:100830002C0000200800000068000000C800000034
:10084000A80000002DE9FC4104460D4616461F464F
:100850001649887AFFF780FF20128DF80400E0B275
:100860008DF8050030128DF80600F0B28DF8070003
:10087000042101A800F060F80C49087BFFF76CFF29
:1008800028128DF80000E8B28DF8010038128DF8BA
:100890000200F8B28DF803000421684600F04CF81D
:1008A0000249087AFFF758FFBDE8FC812C000020C0
:1008B00000B587B00121022000F05CF80121880416
:1008C00000F068F84FF44060059002208DF81800A1
:1008D00000208DF81A0001208DF81B0002208DF8F1
:1008E000190005A91248FFF7F1FC07220A21104858
:1008F000FFF734FD07220B210D48FFF72FFD4FF4C2
:10090000E13001900020ADF80800ADF80A00ADF824
:100910000C00ADF810000820ADF80E0001A9054844
:1009200000F0E4F90121034800F0D4F907B000BD5C
:10093000000402400048004070B505460E46002005
:100940000849086001200849C1F8B802002403E002
:10095000285D00F0EDF8641CB442F9DB0120014988
:10096000086070BDBC8240420080404200BFFEE78C
:100970007047704729B1064A12680243044B1A6057
:1009800004E0034A12688243014B1A60704700007A
:100990003038024029B1064A12680243044B1A60FB
:1009A00004E0034A12688243014B1A60704700005A
:1009B0004038024029B1064A12680243044B1A60CB
:1009C00004E0034A12688243014B1A60704700003A
:1009D0004438024029B1064A12680243044B1A60A7
:1009E00004E0034A12688243014B1A60704700001A
:1009F00024380240F0B50021002200240225002600
:100A00000223324F3F6807F00C0121B1042905D0C1
:100A1000082937D105E02E4F076036E02D4F0760DB
:100A200033E02A4F3F1F3F68C7F38056274F3F1FD1
:100A30003F6807F03F036EB1264FB7FBF3F7DFF8CF
:100A40008CC0ACF1040CDCF800C0CCF3881C07FBB4
:100A50000CF40CE01E4FB7FBF3F7DFF870C0ACF1FD
:100A6000040CDCF800C0CCF3881C07FB0CF4174F17
:100A70003F1F3F68C7F301477F1C7D00B4FBF5F7BC
:100A8000076002E0124F076000BF00BF0F4F3F68D2
:100A900007F0F0010909104F7A5C0768D7404760FA
:100AA0000A4F3F6807F4E051890A0B4F7A5C4768A8
:100AB000D7408760054F3F6807F46041490B064FF8
:100AC0007A5C4768D740C760F0BD00000838024034
:100AD0000024F40000127A001C00002021B10288DA
:100AE00042F04002028004E002884FF6BF731A40D1
:100AF0000280704710B50022028802F441520B8830
:100B00004C8823438C882343CC8823430C8923437C
:100B10004C8923438C892343CC8923431A43028085
:100B2000838B4FF2FF74234083830B8A038210BDB3
:100B300000BF0949098901F002010029F9D00649DD
:100B4000888100BF0449098901F001010029F9D019
:100B5000014989897047000000300140704700005A
:100B60000CB50020019000903448006840F48030BB
:100B70003249086000BF3148006800F4003000903E
:100B80000198401C0190009818B90198B0F5A04F49
:100B9000F1D12A48006800F4003010B10120009023
:100BA00001E0002000900098012846D12348403001
:100BB000006840F0805021494031086020480068BA
:100BC00040F440401E4908601C48083000681B493A
:100BD000083108600846006840F400400860084694
:100BE000006840F4A05008601648091F0860081FFC
:100BF000006840F08070091F086000BF0F4800685F
:100C000000F000700028F9D040F205700E4908602D
:100C10000A480830006820F00300084908310860DD
:100C20000846006840F00200086000BF0348083032
:100C3000006800F00C000828F8D10CBD0038024014
:100C40000070004008544007003C024010B500F01E
:100C500035F810BD10B51548006840F47000134910
:100C600008601348006840F0010011490860002046
:100C70000F49083108600E4800680E4908400C49C9
:100C800008600D48091D0860081F006820F48020D6
:100C9000091F0860002006490C310860FFF760FF5B
:100CA0004FF0006001498039086010BD88ED00E018
:100CB00000380240FFFFF6FE1030002404480068B0
:100CC00020B103480068401E0149086070470000D9
:100CD0000400002021B1828942F40052828104E0A4
:100CE00082894DF6FF731A40828170472DE9FF47D4
:100CF00005460E460024A14600BFA046B08900B1BB
:100D000000BF2C8A24F44054F08804432C82AC8920
:100D100041F20C608443B0883189084371890843EB
:100D20000443AC81AC8A24F44074B0890443AC829F
:100D30006846FFF75FFE2048854202D01F48854283
:100D400002D1DDF80C9001E0DDF80890A88900F4EC
:100D5000004040B109EBC90000EB091031684900BF
:100D6000B0FBF1F707E009EBC90000EB09103168AF
:100D70008900B0FBF1F76420B7FBF0F00401200913
:100D8000642101FB1078A88900F4004040B13220B2
:100D900000EBC800B0FBF1F000F00700044308E0EE
:100DA000322000EB08106421B0FBF1F000F00F00DE
:100DB00004432C81BDE8FF8700100140001401406E
:100DC00000BFFEE702E008C8121F08C1002AFAD1DE
:100DD00070477047002001E001C1121F002AFBD1BB
:100DE0007047FFF705FAFFF763FDFFF72FFB00BF22
:100DF000FEE70000140E0008000000202C00000098
:100E0000C40D0008400E00082C000020140400004F
:100E1000D40D0008A800000000000000007A030ABA
:100E2000000000000000000001020304060708099A
:100E30000000000001020304010203040607080980
:040000050800018965
:00000001FF
