:020000040800F2
:10000000A8FA0020A1010008BD180008BB100008D4
:10001000B9180008AB05000885350008000000008D
:10002000000000000000000000000000952C000807
:10003000D10A0008000000004D190008852D0008B5
:10004000BB010008BB010008BB010008BB010008A0
:10005000BB010008BB010008BB010008BB01000890
:10006000BB010008BB010008BB010008BB01000880
:10007000BB010008BB010008BB010008BB01000870
:10008000BB010008BB010008BB010008BB01000860
:10009000BB010008BB010008BB010008BB01000850
:1000A000BB010008BB010008BB010008BB01000840
:1000B000F52D0008BB010008BB010008BB010008CA
:1000C000BB010008BB010008BB010008BB01000820
:1000D000BB010008BB010008BB010008BB01000810
:1000E000BB010008BB010008BB010008BB01000800
:1000F000BB010008BB010008BB010008BB010008F0
:10010000BB010008391D0008BB010008BB01000845
:10011000BB010008BB010008BB010008BB010008CF
:10012000BB010008BB010008BB0100087D080008F6
:10013000BB010008BB010008BB010008BB010008AF
:10014000BB010008BB010008BB010008BB0100089F
:10015000BB010008BB010008BB010008BB0100088F
:10016000BB010008BB010008BB010008BB0100087F
:10017000BB010008BB010008BB010008BB0100086F
:10018000BB010008BB010008DFF810D000F0D0F977
:100190000048004711E90208AFF30080A8FA0020E8
:1001A0000648804706480047FEE7FEE7FEE7FEE711
:1001B000FEE7FEE7FEE7FEE7FEE7FEE78D2D00081F
:1001C000890100082DE9F05F0546002092469B4614
:1001D00088460646814640241BE02846414647465D
:1001E000224600F037F953465A46C01A914110D3BF
:1001F00011461846224600F01EF92D1A67EB010839
:100200004F4622460120002100F015F917EB0009A6
:100210004E41201EA4F10104DFDC484631462A4647
:100220004346BDE8F09F10B5431A934209D28318A4
:10023000881803E010F8011D03F8011D521EF9D2C1
:1002400010BD40EA01039B0703D009E008C9121F53
:1002500008C0042AFAD203E011F8013B00F8013B80
:10026000521EF9D210BDD2B201E000F8012B491E96
:10027000FBD270470022F6E710B513460A46044643
:100280001946FFF7F0FF204610BD421C10F8011B75
:100290000029FBD1801A704710B5002200E0521CE3
:1002A000835C8C5CA34201D1002BF8D1D8B2E1B2BF
:1002B000401A10BD034611F8012B00F8012B002A4B
:1002C000F9D1184670472DE9FE4F81EA030404F086
:1002D000004421F0004100944FF0000B23F0004354
:1002E00050EA01045ED052EA03045BD0C3F30A541F
:1002F000C1F30A552C44A4F2F3340194A0FB025438
:10030000C1F3130141F48011C3F3130343F48013C9
:1003100001FB024400FB034E840A970A44EA81541D
:1003200047EA8357A4FB076802958D0A05FB0785FA
:100330004FEA932C04FB0C542705029D4FEA065804
:1003400047EA1637B5EB08056EEB070C870E920EE1
:1003500047EA811742EA8312A7FB0201B6EB0B01C1
:1003600064EB00042B0D43EA0C335E1844EB1C5085
:10037000DA465146E7FB0201C5F313044FEA0B339B
:1003800043EA14534FEA0432019C43EA0603A4F102
:100390000C040294009CCDE900B400F07AF803B09C
:1003A000BDE8F08F00200146F9E70EB5C10F80EAE5
:1003B000E0700844CA07002140F233438DE80E0084
:1003C0000A460B4600F065F803B000BD70B5C1F3F6
:1003D0000A5201F000450024C1F3130140F2FF333B
:1003E00041F480119A4201DA002070BD40F233439B
:1003F0009A42A2F2334203DC524200F02BF800E0B2
:1004000090402C43F1D0404270BD30B50B460146C0
:1004100000202022012409E021FA02F59D4205D3A3
:1004200003FA02F5491B04FA02F52844151EA2F14D
:100430000102F1DC30BD202A04DB203A00FA02F18F
:10044000002070479140C2F1200320FA03F31943C2
:1004500090407047202A04DB203A21FA02F0002164
:10046000704721FA02F3D040C2F1200291400843C4
:100470001946704710B5141E73F1000408DA401CC9
:1004800041F1000192185B411A4301D120F00100B3
:1004900010BD2DE9F04D92469B4611B1B1FA81F2A3
:1004A00002E0B0FA80F220329046FFF7C4FF044623
:1004B0000F4640EA0A0041EA0B0153465A460843F8
:1004C00013D0114653EA010019D0C8F1400250463A
:1004D000FFF7C0FF05460E46504659464246FFF715
:1004E000AAFF084305D0012004E020463946BDE8B4
:1004F000F08D0020054346EAE0762C4337430A9806
:100500006305E40AA0EB08000022FD0A44EA475410
:100510000A3002D500200146E9E7010510196941BA
:10052000DDE9084500196941BDE8F04DA2E700008A
:10053000064C074D06E0E06840F0010394E8070030
:1005400098471034AC42F6D3FFF722FE2C7406080D
:100550004C74060870B58C1810F8015B15F0070391
:1005600001D110F8013B2A1106D110F8012B03E04C
:1005700010F8016B01F8016B5B1EF9D12B0705D454
:100580000023521E0DD401F8013BFAE710F8013B9D
:10059000CB1A921C03E013F8015B01F8015B521EB9
:1005A000F9D5A142D8D3002070BD00BFFEE770B5D9
:1005B00000254FF4803400E0641E24B1802001F057
:1005C0008FFB0028F8D014B90325284670BD40F2EF
:1005D000FF5001F041FB2846F8E700002DE9F0410B
:1005E000064600274848056801E04748056805F0C9
:1005F00045000028F9D005F0040030B1032704209D
:1006000001F02AFB3846BDE8F08105F0010028B171
:100610000127012001F020FB3846F4E701F05AFBE6
:10062000B04202D010273846EDE740F2FF5001F00B
:1006300013FB002001F074FB04463448204008B945
:100640003846E0E704F0004008B11C20DBE704F086
:10065000804008B10920D6E704F0005008B10A2014
:10066000D1E704F0805008B10B20CCE704F0006023
:1006700008B10C20C7E704F0806008B10D20C2E784
:1006800004F0807008B10E20BDE704F4000008B14A
:100690000F20B8E704F4800008B11020B3E704F499
:1006A000001008B11120AEE704F4801008B1122048
:1006B000A9E704F4002008B11320A4E704F4802083
:1006C00008B114209FE704F4003008B115209AE720
:1006D00004F4803008B1162095E704F4004008B116
:1006E000172090E704F4804008B118208BE704F449
:1006F000005008B1192086E704F0080008B11A205C
:1007000081E738467FE70000342C014008E0FFFD18
:1007100070B500251048046801E00F48046804F033
:1007200045000028F9D004F0040028B10325042076
:1007300001F092FA284670BD04F0010028B10125AD
:10074000012001F089FA2846F5E740F2FF5001F058
:1007500083FA2846EFE70000342C014070B50025ED
:100760000B48046801E00A48046804F045000028CA
:10077000F9D004F0040028B10325042001F06CFA3C
:10078000284670BD40F2FF5001F066FA2846F8E7AF
:10079000342C01402DE9F04106460F464FF0000889
:1007A0002248056801E02148056805F04500002859
:1007B000F9D005F0040038B14FF00308042001F02F
:1007C0004BFA4046BDE8F08105F0010030B14FF032
:1007D0000108012001F040FA4046F3E701F07AFAFF
:1007E000B04203D04FF010084046EBE740F2FF5014
:1007F00001F032FA002001F093FA044604F460405C
:1008000018B9200C38804046DCE704F4005008B1E9
:100810001320D7E704F4804008B11020D2E704F495
:10082000004008B10F20CDE74046CBE7342C014013
:1008300070B500264FF480350F48046802E06D1E45
:100840000D48046804F0450008B9002DF7D115B132
:1008500004F0040028B10326042001F0FDF930461D
:1008600070BD04F0400028B10026402001F0F4F9EA
:100870003046F5E73046F3E7342C014010B501F07F
:1008800057FF10BD0246094B9A4201D2084801E0C9
:100890000648103801F000531BB1064B0B40C360F3
:1008A00002E0044B0B40836070470000106402407C
:1008B000006002407D0F7D0F21B1026842F001020D
:1008C000026003E0026822F001020260704700004B
:1008D000016821F001010160002101604160816037
:1008E000C1600161212141614A49884204D13D2111
:1008F000484A103A91608CE046491831884205D147
:100900004FF47461434A103A916082E041493031BA
:10091000884205D14FF474113E4A103A916078E054
:100920003C494831884205D14FF07461394A103A48
:1009300091606EE037496031884204D13649354ACA
:10094000103AD16065E033497831884204D13349A7
:10095000304A103AD1605CE02E499031884204D18F
:100960002F492C4A103AD16053E02A49A8318842D5
:1009700005D14FF03D51274A103AD16049E029494D
:10098000884204D13D21274A083A116041E02549B7
:100990001831884205D14FF47461224A083A116037
:1009A00037E020493031884205D14FF474111D4A97
:1009B000083A11602DE01B494831884205D14FF0BB
:1009C0007461184A083A116023E016496031884280
:1009D00004D11149134A121F11601AE011497831EC
:1009E000884204D10D490F4A121F116011E00D49D0
:1009F0009031884204D10A490A4A121F116008E066
:100A00000849A831884204D14FF03D51054A121FD0
:100A100011607047106002403D000020400F002030
:100A200000003D201064024021B1026842F0200223
:100A3000026003E0026822F020020260704710B5F5
:100A400001F080034BB122B1436943F0800343615D
:100A500003E0436923F08003436180290BD02AB16E
:100A6000036801F01E042343036004E0036801F0FF
:100A70001E04A343036010BD10B500220268134B8F
:100A80001A40CC680B6823434C6923438C69234389
:100A9000CC6923430C6A23434C6A23438C6A234367
:100AA0004C6B23438C6B23431A430260426922F050
:100AB0000702D1E90B3423431A4342610B694360B7
:100AC0004B6883608B68C36010BD00003F801CF0E2
:100AD0007047000030B5144800684FF47A72B0FBDC
:100AE000F2F1481EB0F1807F00D31BE0481E4FF0AA
:100AF000E022506150170F22002807DA13071D0E5D
:100B00000A4B00F00F04241F1D5503E013071C0EB1
:100B1000074B1C5400BF00204FF0E02290610720DB
:100B2000106100BF30BD00003800002018ED00E06B
:100B300000E400E070B504461E2094FBF0F594FB41
:100B4000F0F100FB114604E047F2305000F00CF8E1
:100B50006D1E002DF8D12EB14FF47A7106FB01F015
:100B600000F002F870BD000070B5034600224FF09F
:100B7000E02675690D4E366803FB06F44FF0E0265B
:100B8000B16910E04FF0E026B06988420BD088428E
:100B900002D20E1A324402E02E1A0E4432440146AA
:100BA000A24200D300E0EDE700BF70BD04000020CA
:100BB00070B504460A460026092502B909E0012A53
:100BC00001D1160205E0022A01D1160201E04FF41C
:100BD000407600F09FF80546092D28D11548006899
:100BE00020F44070134908600846006830430860EC
:100BF0000846006820F0F80008600846006844F0E5
:100C0000020108430B4908600846006840F4803040
:100C1000086000F07FF805460648006820F00200F2
:100C2000044908600846006820F0F800086028467B
:100C300070BD0000103C024009201349096801F40E
:100C40008031B1F5803F01D101201CE00E490968D7
:100C500001F0100109B1062015E00B49096801F403
:100C6000807109B102200EE00749096801F0E00136
:100C700009B1072007E00449096801F0020109B140
:100C8000082000E0092070470C3C0240034800683F
:100C900040F000400149086070470000103C0240ED
:100CA00030B502460C46092500F034F80546092DFA
:100CB00019D10E48006820F440700C4908600846BD
:100CC000006840F4007008600846006840F00100C9
:100CD0000860146000F01EF805460448006820F023
:100CE000010002490860284630BD0000103C024067
:100CF0000548006800F0004028B1044802490C395A
:100D00000860034808607047103C024023016745B3
:100D1000AB89EFCD08B509200090FFF78DFF00905B
:100D200002E0FFF789FF00909DF800000128F8D04D
:100D30009DF8000008BD000010B5012218A1194857
:100D400011F0FEF8184908700846017817A002F063
:100D50001BFC154800780D281BD10022114610A05D
:100D600010F0ACFD1049087008460078B8B90122AF
:100D70000BA1002011F0E4F80B490870012208A132
:100D8000084811F0DDF8084908700AA002F0FCFBE1
:100D900005E00548007810B906A002F0F5FB10BD8B
:100DA000303A0000D40300203400002025640D0AEE
:100DB00000000000CEC4BCFECFB5CDB3B3F5CABCB5
:100DC000BBAFCDEAB3C90D0A000000002DE9FC411C
:100DD00007460D46002600240020009001900820C0
:100DE0005B49086010204860402088600020C8608F
:100DF0004FF480600861084600F0D0FF1020FFF734
:100E0000EDFB044614B12046BDE8FC815148008842
:100E100000044F4908603720486040208860002067
:100E2000C8604FF480600861084600F0B7FF3720C3
:100E3000FFF7D4FB04460CB12046E5E74FF0FF3046
:100E40004549086008204860302088600220C8605A
:100E50000020086101204861084600F015FF0020CD
:100E60003B49086033204860402088600020C8600B
:100E70004FF480600861084600F090FF3320FFF7D0
:100E8000ADFB04460CB12046BEE709E04FF400106C
:100E900000F026FF20B100F07BFF4DF82600761C05
:100EA0002E48006840F22A6108400028EED0082051
:100EB00000F016FF28B1082000F0CEFE04242046E2
:100EC000A2E7022000F00CFF28B1022000F0C4FECF
:100ED0000224204698E7202000F002FF28B12020BD
:100EE00000F0BAFE062420468EE74FF4007000F0B2
:100EF000F7FE30B14FF4007000F0AEFE072420463C
:100F000082E740F2FF5000F0A7FE0098000600992B
:100F100001F47F4140EA0120009901F47F0140EA99
:100F20001120009940EA116068600198000601995B
:100F300001F47F4140EA0120019901F47F0140EA78
:100F40001120019940EA1160286020465CE700000A
:100F5000A803002020000020BC030020342C014006
:100F6000F0B50A4600210023002400BF3DE0012522
:100F700005FA01F3156805EA03049C4234D10568BB
:100F80004F000326BE40B543056015794E00B540BD
:100F90000668354305601579012D02D01579022DBB
:100FA00016D185684F000326BE40B543856055794C
:100FB0004E00B540866835438560456801268E4001
:100FC000B5434560456896798E40B6B23543456075
:100FD000C5684F000326BE40B543C560D5794E00B5
:100FE000B540C6683543C560491C1029BFD3F0BD64
:100FF000F0B5002300244D07ED0E02FA05F3CE10E4
:1010000000F1200555F826504E07F70E0F26BE407A
:10101000B543CF1000F1200646F82750CE1000F15E
:10102000200555F8265045EA0304CE1000F12005AE
:1010300045F82640F0BD10B50121084600F098FCA7
:101040000021012000F094FC0121022000F090FC1E
:101050000021022000F08CFC0121042000F088FC1B
:101060000021042000F084FC0121082000F080FC15
:101070000021082000F07CFC0121102000F078FC09
:101080000021102000F074FC0121202000F070FCF1
:101090000021202000F06CFC0121402000F068FCC1
:1010A0000021402000F064FC0121802000F060FC61
:1010B0000021802000F05CFC10BD00BFFEE70000B6
:1010C00070B5044616484088401E83B21448008814
:1010D000401E82B20021084600F040FA002011496B
:1010E000086001201049C1F8B80200250FE0002671
:1010F00007E0201201F0B8FDE0B201F0B5FD701C70
:1011000086B207480088B042F3DC681C85B2044808
:101110004088A842EBDC01200249086070BD000055
:10112000DC020020BC824042008040421CB501210C
:10113000022000F00DFC4FF47040009001208DF86B
:10114000040003208DF8050000208DF80600012022
:101150008DF8070069460248FFF702FF1CBD00003A
:101160000004024000B59BB000F028F9FFF7DEFF55
:1011700000F010F9CF2000F07BF96EA000681A9003
:1011800003211AA800F064FAED2000F071F96AA0BA
:1011900000681990042119A800F05AFAE82000F01C
:1011A00067F966A000681890032118A800F050FAAB
:1011B000CB2000F05DF962A103C9CDE9160105213C
:1011C00016A800F045FAF72000F052F95EA000687A
:1011D0001590012115A800F03BFAEA2000F048F92B
:1011E00000201490022114A800F032FAC02000F070
:1011F0003FF956A000681390012113A800F028FAC7
:10120000C12000F035F900201290012112A800F051
:101210001FFAC52000F02CF94DA0006811900221A2
:1012200011A800F015FAC72000F022F949A00068C3
:101230001090012110A800F00BFA362000F018F9E8
:1012400045A000680F9001210FA800F001FA3A2094
:1012500000F00EF941A000680E9001210EA800F0E8
:10126000F7F9B12000F004F93DA000680D900221CB
:101270000DA800F0EDF9B62000F0FAF839A00068EA
:101280000C9002210CA800F0E3F9F22000F0F0F835
:1012900000200B9001210BA800F0DAF9262000F0C5
:1012A000E7F831A000680A9001210AA800F0D0F9FF
:1012B000E02000F0DDF82DA090E80E00C068CDE938
:1012C0000723069109900F2106A800F0C1F9E1203B
:1012D00000F0CEF829A30FCBCDE90423CDE902011C
:1012E0000F2102A800F0B4F92B2000F0C1F827A0CC
:1012F00000680190042101A800F0AAF92A2000F05A
:10130000B7F823A0006800900421684600F0A0F917
:10131000112000F0ADF87820FFF70CFC292000F038
:10132000A7F8022000F0B8F84FF6FF70FFF7C8FEEC
:101330001BB000BD00C930006403128185107A0023
:10134000392C003402000000200000001B000000C7
:1013500030300000B7000000080000005500000019
:10136000001A00000AA20000010000000F2A28084D
:101370000E0854A9430A0F000000000000151707CB
:1013800011062B563C05100F3F3F0F000000013F98
:10139000000000EF10B50020064908606420FFF748
:1013A000C9FB01200449C1F8B0023220FFF7C2FB9B
:1013B00010BD0000B08240420080404200B587B0BE
:1013C0000121022000F0C4FA0121080300F0F0FA24
:1013D0003820059002208DF8180000208DF81A00A2
:1013E00003208DF8190001208DF81B0005A91E4867
:1013F000FFF7B6FD052203211B48FFF7F9FD052283
:1014000004211948FFF7F4FD052211461648FFF79D
:10141000EFFD0121080300F0DBFA00214FF48050BA
:1014200000F0D6FA0020ADF800004FF48270ADF85D
:1014300002000020ADF80400ADF80600ADF8080089
:101440004FF40070ADF80A000020ADF80E00072040
:10145000ADF810006946054801F0E8FB012103489A
:1014600001F0D8FB07B000BD00040240003001408D
:1014700010B504460020064908600649C1F8B802C4
:10148000204601F0F1FB01200149086010BD000079
:10149000BC824042008040421FB504462A202A49AF
:1014A00048812B2088812C20088134B1012C15D053
:1014B000022C24D0032C44D132E0F02022490880B1
:1014C0004FF4A07048803620FFF7D2FF1FA00068BD
:1014D0000390012103A800F0BBF832E04FF4A070A4
:1014E00019490880F02048803620FFF7C1FF18A076
:1014F00000680290012102A800F0AAF821E0F02083
:10150000114908804FF4A07048803620FFF7B0FFE3
:1015100010A000680190012101A800F099F810E0E6
:101520004FF4A07008490880F02048803620FFF76B
:101530009FFF09A0006800900121684600F088F82C
:1015400000BF00BF1FBD0000DC020020080000003B
:1015500068000000C8000000A80000002DE9FC4160
:1015600004460D4616461F461649887AFFF780FF47
:1015700020128DF80400E0B28DF8050030128DF8CD
:101580000600F0B28DF80700042101A800F060F811
:101590000C49087BFFF76CFF28128DF80000E8B2B9
:1015A0008DF8010038128DF80200F8B28DF80300B2
:1015B0000421684600F04CF80249087AFFF758FF0A
:1015C000BDE8FC81DC02002000B587B001210220CB
:1015D00000F0BEF90121880400F0DAF94FF4406010
:1015E000059002208DF8180000208DF81A000120C7
:1015F0008DF81B0002208DF8190005A91248FFF78D
:10160000AFFC07220A211048FFF7F2FC07220B214A
:101610000D48FFF7EDFC4FF4E13001900020ADF8EC
:101620000800ADF80A00ADF80C00ADF81000082075
:10163000ADF80E0001A9054801F036FF012103486D
:1016400001F018FF07B000BD000402400048004050
:1016500070B505460E46002008490860012008497B
:10166000C1F8B802002403E0285D01F0FDFA641C13
:10167000B442F9DB01200149086070BDBC824042E0
:101680000080404270B51748046817482040B0F108
:10169000005F03D015A001F077FF70BD72B6002087
:1016A0004FF0E02108614861886100BF08E04FF019
:1016B000FF32114941F82020104941F82020401CF8
:1016C0000828F4DB00F094F9FFF7B5FC05480C4955
:1016D000086000BF84F3088800BF45682E46B04705
:1016E00000BFDAE7000008080000FE2FB7C7B7A860
:1016F0004170700D0A00000080E100E080E200E02F
:1017000008ED00E070B5ADF5A65D05462A4637A1A7
:101710000DF5A25001F048FF01220DF5A2510DF286
:101720001C4010F03BFC3449087008460078002843
:101730004FD132A001F028FFFFF7DAFA4FF48061B1
:1017400006A8FEF797FD314E36E00DF583634FF4A2
:10175000806206A9181D10F0DCFC274908700846B5
:10176000007828B10846017829A001F00DFF24E097
:1017700072B6002417E04FF0FF310591002005E01C
:10178000211806AA515C05AA1154401C042804D251
:101790002218DDF818148A42F2D330460599FFF773
:1017A0007FFA361D241DDDF818048442E3D362B6A7
:1017B000DDF8180400B900E0C7E700BFFFF766FADC
:1017C0000DF21C4010F069F8294618A001F0DCFE6B
:1017D00004E0094801781AA001F0D6FE01221FA1F9
:1017E000002010F0ADFB0DF5A65D70BD303A2573FD
:1017F0002E62696E0000000034000020CEC4BCFEE2
:10180000B4F2BFAAB3C9B9A60D0A000000000808C7
:10181000CEC4BCFEB6C1C8A1CAA7B0DC20B4EDCE10
:10182000F3B4FAC2EB3A25640D0A000025732E6268
:10183000696ED0B4C8EBCDEAB3C90D0A0000000050
:10184000CEC4BCFEB4F2BFAACAA7B0DC20B4EDCEB1
:10185000F3B4FAC2EB3A25640D0A0000303A0000F6
:1018600010B5FFF769FA0EA001F08EFE72B6FFF711
:101870003FFA02214020FFF79BF902214820FFF7A1
:1018800097F902215020FFF793F902215820FFF722
:101890008FF9FFF7FBF962B604A001F075FE10BDE9
:1018A000BFAACABCB2C1B3FD0D0A0000B2C1B3FDEC
:1018B000CDEAB3C90D0A000000BFFEE77047000083
:1018C00070B5002100230F22C4781CB3174C246884
:1018D00004F4E064C4F5E064C4F30721C1F1040436
:1018E000E3B20A4144789C40E1B284781440214339
:1018F0000C07210E0E4C05786155047804F01F0585
:101900000124AC4005786D11AD0005F1E025C5F866
:10191000004109E0047804F01F050124AC40054DA6
:101920000678761145F8264070BD00000CED00E009
:1019300000E400E080E100E002490143024A116056
:10194000704700000000FA050CED00E07047000051
:1019500029B1064A12680243044B1A6004E0034AA4
:1019600012688243014B1A60704700003038024011
:1019700029B1064A12680243044B1A6004E0034A84
:1019800012688243014B1A60704700001038024011
:1019900029B1064A12680243044B1A6004E0034A64
:1019A00012688243014B1A607047000040380240C1
:1019B00029B1064A12680243044B1A6004E0034A44
:1019C00012688243014B1A6070470000443802409D
:1019D00029B1064A12680243044B1A6004E0034A24
:1019E00012688243014B1A6070470000243802409D
:1019F0001448006840F001001249086000201149B5
:101A0000083108600F4800680F4908400D49086018
:101A10000E48091D08600E480A49843108600B48C9
:101A20001038091D08600748006820F48020054927
:101A30000860002003490C31086002498C310860BD
:101A40007047000000380240FFFFF6EA1030002423
:101A500000300020F0B500210022002402250026DD
:101A60000223324F3F6807F00C0121B1042905D051
:101A7000082937D105E02E4F076036E02D4F07606B
:101A800033E02A4F3F1F3F68C7F38056274F3F1F61
:101A90003F6807F03F036EB1264FB7FBF3F7DFF85F
:101AA0008CC0ACF1040CDCF800C0CCF3881C07FB44
:101AB0000CF40CE01E4FB7FBF3F7DFF870C0ACF18D
:101AC000040CDCF800C0CCF3881C07FB0CF4174FA7
:101AD0003F1F3F68C7F301477F1C7D00B4FBF5F74C
:101AE000076002E0124F076000BF00BF0F4F3F6862
:101AF00007F0F0010909104F7A5C0768D74047608A
:101B00000A4F3F6807F4E051890A0B4F7A5C476837
:101B1000D7408760054F3F6807F46041490B064F87
:101B20007A5C4768D740C760F0BD000008380240C3
:101B30000024F40000127A004C0000207CB5054619
:101B4000002400200090019000F0EAF800F00070FE
:101B500010B10E2420467CBD3D49098888B26946F3
:101B6000FFF734F904460CB12046F4E7012D36D1D5
:101B7000019800F4802000282ED035480088000409
:101B80003449086037204860402088600020C860E1
:101B9000A8020861084600F001F93720FEF71EFD93
:101BA00004460CB12046D6E702202A4908600620E8
:101BB0004860402088600020C8604FF48060086161
:101BC000084600F0EBF80620FEF708FD04460CB1CD
:101BD0002046C0E72046BEE725242046BBE7019803
:101BE00000F4803078B31A4800880004194908606E
:101BF00037204860402088600020C8604FF4806033
:101C00000861084600F0CAF83720FEF7E7FC0446F2
:101C10000CB120469FE700200E490860062048606E
:101C2000402088600020C8604FF48060086108464A
:101C300000F0B4F80620FEF7D1FC04460CB12046B3
:101C400089E7204687E7FFE72524204683E7000051
:101C500020000020A8030020014908607047000010
:101C6000382C01400149086070470000382C0140C1
:101C70000149086070470000A080254201490860C2
:101C8000704700008C85254200210B4B02681A60CA
:101C90001B1D42681A601A1D116821F0F701D0E976
:101CA00002231A4303691A4343691A431143024A40
:101CB0000832116070470000242C014010B501214A
:101CC000C802FFF785FE00214FF40060FFF780FE99
:101CD00010BD000001480068C0B27047102C0140E0
:101CE00001460020034A12680A400AB1012000E0C0
:101CF00000207047342C014001460020034A12683E
:101D00000A400AB1012000E000207047342C014055
:101D10000248006800F0030070470000002C0140FA
:101D200008B5014600200090024808440090009841
:101D3000006808BD142C014010B500F00DFD10BD69
:101D400029B1064A12680243044B1A6004E0034AB0
:101D500012688243014B1A60704700003C2C01401E
:101D600000210A4A116847F6FF629143027D8368A9
:101D70001A4343681A43C3681A4303681A43036942
:101D80001A431143014A116070470000042C0140BE
:101D90000148006870470000802C01400021094B79
:101DA00002681A601A1D11686FF30A01D0E9012355
:101DB0001A43C3681A4303691A431143014A121DA7
:101DC00011607047082C014001490860704700000D
:101DD000002C014008B5012000909DF8000008BDCE
:101DE00070B50446002520480068032802D1272545
:101DF000284670BD1C48006838B11B48006801289F
:101E000003D01948006802282CD1B4F5805F02D1B4
:101E100027252846EDE7B4F5006F13D10120FFF721
:101E20008DFE0546F5B90020104908750860486028
:101E300088604FF40060C860002008610846FFF722
:101E40008FFF0FE00020FFF779FE054655B900200F
:101E500006490875086048608860C86008610846DF
:101E6000FFF77EFF2846C4E71C00002090030020F7
:101E7000F0B5014600200022C04B1B7881F8563097
:101E8000BF4B1B88A1F85430BE4B1B681A0E930938
:101E90000B70C2F383034B7002F003038B70B94BDA
:101EA0001B68C3F30742CA70B64B1B88C3F30722F3
:101EB0000A71B44B1A784A715B681A0E1301CB8011
:101EC000B04B5B68C3F30742CB8843EA1213CB8065
:101ED00002F00F030B72AB4B9B88C3F30722D309AD
:101EE0004B72C2F380138B72C2F34013CB72C2F3F6
:101EF00000130B7300234B73A04B1B681BB19F4B4C
:101F00001B68012B4FD193071B0D0B619D4B1A7959
:101F10000B6943EA82030B619A4B9B681A0E0B69AB
:101F200043EA92130B61C2F3C2030B7502F007037D
:101F30004B75944B9B68C3F3074253098B75C2F3EF
:101F40008203CB7593075B0F0B768E4B1B89C3F314
:101F500007220B7E43EAD2130B760B695B1C00242D
:101F6000C1E912340B7ED1E912649B1C012505FAEC
:101F700003F3DD17A6FB037C04FB03C306FB053359
:101F8000C1E912730C7A0123A3400B650027D1E944
:101F900012560B6DA5FB034C06FB03C305FB073371
:101FA000C1E9124336E0754B1B68022B32D1754BE9
:101FB0001A7993069B0A0B61724B9B681A0E0B6988
:101FC00043EA02230B616F4B9B68C3F307420B6923
:101FD00013430B616B4B1B89C3F307220B6900246E
:101FE0005B1C64414FF400770026A3FB075C04FBF5
:101FF00007C403FB06474FF4806600242B463D468A
:10200000A3FB067C05FB06C503FB0453C1E9127361
:1020100073100B65C2F3801301F8193F93065B0E32
:102020004B70584B1A7A4B7843EAD2134B7002F03C
:102030007F038B70534BDB681A0ED309CB70C2F34E
:1020400041130B71C2F382034B7193071B0F8B710A
:102050004C4BDB68C3F307428B7943EA92138B71D5
:10206000C2F34013CB7100230B7202F001034B72D9
:10207000444B9B89C3F30722D3098B72C2F38013AD
:10208000CB72C2F340130B73C2F300134B73C2F352
:1020900081038B7302F00303CB733A4B1A7B530813
:1020A0000B7401234B74384B1B681A0ECA74193910
:1020B000354B1B68C3F307421402CC85324B1B8897
:1020C000C3F30722CB8D1343CB852F4B1A7814060D
:1020D0000C635B681A0E0B6B43EA02440C632A4BD9
:1020E0005B68C3F307420B6B43EA02240C63264B85
:1020F0009B88C3F307220B6B13430B63224B1A79A4
:1021000034235A54204B9B681A0E35235A541E4BC5
:102110009B68C3F3074214068C631B4B1B89C3F3F4
:1021200007228B6B43EA02448C63174B1A7A8B6B42
:1021300043EA02248C63144BDB681A0E8B6B134347
:102140008B63114BDB68C3F307423C235B5C43EAC0
:1021500012143C235C5413071C0DCC870A4B9B893B
:10216000C3F30722CB8F1343CB87074B1A7B54084B
:1021700040235C54012441235C54F0BD1C0000202A
:1021800020000020080300201803002008B50020CC
:102190000090FFF71FFE012809D1684600F0CAFB36
:1021A00008B1FF2008BD0098C0F34320FAE7FF20E4
:1021B000F8E710B50424FFF7E9FF0446042C01D129
:1021C000002010BDFF2C01D10220FAE70120F8E722
:1021D0001CB5002001904FF4C060FFF7ADFB31202B
:1021E0008DF8000001208DF8010000208DF802001C
:1021F00001208DF803006846FFF762FB3B208DF855
:10220000000001208DF801006846FFF759FB00F03F
:102210006DF9FFF753FD00F0BBF901909DF8040044
:1022200010B19DF804001CBD00F032F801909DF83B
:10223000040010B19DF80400F5E70020124908756C
:10224000086048608860C86008610846FFF788FD3C
:102250000E48FFF70DFE01909DF8040040B90B48B1
:10226000B0F8540002041046002100F047FB019032
:102270009DF8040020B94FF40060FFF7B1FD019014
:102280009DF80400CFE700009003002038030020F1
:1022900038B5002401200090FFF73AFD10B925243D
:1022A000204638BD44480068042828D0002043490F
:1022B000086002204860C02088600020C8604FF499
:1022C000806008610846FFF769FDFEF721FA0446C1
:1022D0000CB12046E5E70020FFF722FD38490860F1
:1022E0000420FFF71DFD364948600820FFF718FD60
:1022F000334988600C20FFF713FD3149C8602E4830
:10230000006858B12C480068012807D02A480068A6
:10231000062803D028480068022816D10020274943
:10232000086003204860402088600020C8604FF4A7
:10233000806008610846FFF731FD69460320FEF71B
:1023400029FA04460CB12046ABE71B480068042874
:102350002ED0BDF800001B490860BDF80000000445
:102360001649086009204860C02088600020C860C5
:102370004FF4806008610846FFF710FDFEF7C8F9CA
:1023800004460CB120468CE70020FFF7C9FC0E493B
:1023900008600420FFF7C4FC0B4948600820FFF7E1
:1023A000BFFC094988600C20FFF7BAFC0649C860E9
:1023B0000024204675E700001C000020A803002030
:1023C00018030020200000200803002030B58FB043
:1023D00004460D464FF0FA511E48FEF753FA00210D
:1023E0001C48FEF769FA1B48FEF772FA4FF00060CE
:1023F000009019480190029400200390012004905D
:10240000002005904FF480600690800007908000C7
:102410000890002009904FF440300A9004200B905F
:1024200003200C904FF400000D9080100E90694630
:102430000848FEF721FB012210210648FEF7FFFAAB
:1024400020210448FEF7F0FA01210248FEF734FA91
:102450000FB030BD58640240802C014030B58FB0C1
:1024600004460D464FF0FA511E48FEF70BFA0021C4
:102470001C48FEF721FA1B48FEF72AFA4FF00060CD
:10248000009019480190029440200390012004908C
:10249000002005904FF48060069080000790800037
:1024A0000890002009904FF440300A9004200B90CF
:1024B00003200C904FF400000D9080100E906946A0
:1024C0000848FEF7D9FA012210210648FEF7B7FAAC
:1024D00020210448FEF7A8FA01210248FEF7ECF992
:1024E0000FB030BD58640240802C01401CB5012162
:1024F0000C20FFF72DFA0C2208212348FEF778FD67
:102500000C2209212048FEF773FD0C220A211E48E7
:10251000FEF76EFD0C220B211B48FEF769FD0C2215
:1025200011461948FEF764FD0C2202211748FEF7F8
:102530005FFD4FF47060009002208DF805008DF86B
:10254000040000208DF8060001208DF80700694680
:102550000D48FEF705FD0420009069460B48FEF784
:10256000FFFC4FF48050009000208DF80700694672
:102570000548FEF7F5FC0121C802FFF719FA012111
:102580008805FFF7E5F91CBD00080240000C024079
:10259000F8B50020009000250024002600277620B2
:1025A0005F4908750020086048608860C86008615D
:1025B0000846FFF7D5FB0320FFF706FC0120FFF7D5
:1025C00057FB00205749086048608860C8604FF496
:1025D000806008610846FFF7E1FBFDF7E8FF009027
:1025E0009DF8000010B19DF80000F8BD4FF4D570C3
:1025F0004C49086008204860402088600020C8607E
:102600004FF4806008610846FFF7C8FBFEF710F939
:1026100000909DF8000020B9012043490860870719
:1026200012E000203F490860372048604020886061
:102630000020C8604FF4806008610846FFF7AEFBD9
:102640003720FDF7CBFF0090002036490860372087
:102650004860402088600020C8604FF480600861B6
:102660000846FFF79BFB3720FDF7B8FF00909DF869
:102670000000002851D13BE000202A4908603720A3
:102680004860402088600020C8604FF48060086186
:102690000846FFF783FB3720FDF7A0FF00909DF869
:1026A000000010B19DF800009FE7204838431D4905
:1026B000086029204860402088600020C8604FF4EE
:1026C000806008610846FFF769FBFEF747F8009055
:1026D0009DF8000010B19DF8000086E70020FFF78C
:1026E0001FFB0546012080EAD57080F00106641CBE
:1026F0001EB94FF6FF708442BED34FF6FF7084427E
:1027000004D31B2000909DF800006EE705F0804088
:10271000051E02D00220044908609DF8000064E70D
:1027200090030020A80300201C000020000010805F
:1027300010B50748006800F0C05040B101200549BD
:1027400008604FF0C25102485830FEF79BF810BDA8
:10275000006402403000002010B54FF48070FFF795
:10276000CBFA50B10020254908704FF48070FFF774
:1027700079FA01202249086037E00220FFF7BCFA0D
:1027800030B10220FFF76EFA02201C4908702CE0DD
:102790000820FFF7B1FA30B10820FFF763FA0420F0
:1027A0001649087021E02020FFF7A6FA30B120205A
:1027B000FFF758FA06201149087016E01020FFF7BD
:1027C0009BFA30B11020FFF74DFA05200B49087035
:1027D0000BE04FF40070FFF78FFA30B14FF4007048
:1027E000FFF740FA07200549087000214CF23A3003
:1027F000FFF7A6FA0148007810BD0000280000206D
:102800002C0000202DE9F047814614461D46DDE9E5
:10281000086800270020324908703249086001200A
:1028200031490860002031490860012140F22A3016
:10283000FFF786FA08FB06F14846FFF7C7FD0120BF
:10284000FFF71CFA2A480068022808D10602020293
:10285000002320462946FDF7B5FC04460D462548D1
:102860000660102023494860402088600020C8602E
:102870004FF4806008610846FFF790FA1020FDF7DA
:10288000ADFE074617B13846BDE8F0874FF0FF3080
:102890001949086008FB06F0486090208860022013
:1028A000C86000200861012048610846FFF7ECF984
:1028B0001048046012200F494860402088600020C2
:1028C000C8604FF4806008610846FFF767FA12207D
:1028D000FDF784FE07460FB13846D5E73846D3E703
:1028E000280000202C000020240000202C2C014077
:1028F0001C000020A8030020BC03002070B5044683
:102900000D4600260A480460072009494860402017
:1029100088600020C8604FF4806008610846FFF7B7
:102920003DFA0720FDF75AFE0646304670BD00000E
:10293000A803002070B50446002514B926252846B2
:1029400070BD0F48008800040E4908600D204860E3
:10295000402088600020C8604FF48060086108460D
:10296000FFF71CFA0D20FDF739FE05460DB128468C
:10297000E6E70020FFF7D4F920602846E0E70000F2
:1029800020000020A803002010B5002400200A49E0
:1029900008600C204860402088600020C8604FF428
:1029A000806008610846FFF7F9F90C20FDF716FE74
:1029B0000446204610BD0000A803002070B5002585
:1029C0006C1E00E0641E1848006838B9174800689B
:1029D00020B91748007808B9002CF3D1002012491B
:1029E0000860441E00E0641E1248006800F40050B5
:1029F00008B1002CF7D110480068012805D1FFF775
:102A0000C3FF054600200C4908600CB905B9042530
:102A100040F2FF50FFF720F90548007810B1044854
:102A2000007870BD2846FCE7300000202C00002014
:102A300028000020342C01402400002070B500251F
:102A40006C1E00E0641E1848006838B9174800681A
:102A500020B91748007808B9002CF3D1002012499A
:102A60000860441E00E0641E1248006800F48050B4
:102A700008B1002CF7D110480068012805D1FFF7F4
:102A800083FF054600200C4908600CB905B90425F0
:102A900040F2FF50FFF7E0F80548007810B1044815
:102AA000007870BD2846FCE7300000202C00002094
:102AB00028000020342C0140240000202DE9F0479C
:102AC000814615461E46DDE9087800240020494964
:102AD00008704949086001204849086000204849B9
:102AE0000860012140F21A30FFF72AF908FB07F1CC
:102AF0004846FFF7B3FC0120FFF7C0F841480068E3
:102B0000022808D107020202002328463146FDF7B9
:102B100059FB05460E463C48076010203A4948607C
:102B2000402088600020C8604FF48060086108463B
:102B3000FFF734F91020FDF751FD044614B120468B
:102B4000BDE8F0873148008800042F49086037202D
:102B50004860402088600020C8604FF480600861B1
:102B60000846FFF71BF93720FDF738FD04460CB186
:102B70002046E5E72448C0F8008017202249486035
:102B8000402088600020C8604FF4806008610846DB
:102B9000FFF704F91720FDF721FD04460CB120468C
:102BA000CEE7194805601920174948604020886021
:102BB0000020C8604FF4806008610846FFF7EEF817
:102BC0001920FDF70BFD04460CB12046B8E74FF085
:102BD000FF300F49086008FB07F0486090208860CC
:102BE0000020C8600861012048610846FFF74CF8E2
:102BF0002046A5E7280000202C000020240000200B
:102C00002C2C01401C000020A803002020000020E4
:102C1000BC03002021B1028842F04002028004E09F
:102C200002884FF6BF731A400280704710B5002229
:102C3000028802F441520B884C8823438C8823433A
:102C4000CC8823430C8923434C8923438C89234319
:102C5000CC8923431A430280838B4FF2FF742340B5
:102C600083830B8A038210BD00BF0949098901F0E3
:102C700002010029F9D00649888100BF0449098969
:102C800001F001010029F9D001498989704700004C
:102C900000300140704700000CB50020019000900A
:102CA0003448006840F480303249086000BF314841
:102CB000006800F4003000900198401C01900098DA
:102CC00018B90198B0F5A04FF1D12A48006800F476
:102CD000003010B10120009001E000200090009829
:102CE000012846D123484030006840F080502149F7
:102CF000403108602048006840F440401E490860A8
:102D00001C48083000681B49083108600846006804
:102D100040F4004008600846006840F4A050086095
:102D20001648091F0860081F006840F08070091FDE
:102D3000086000BF0F48006800F000700028F9D05C
:102D400040F205700E4908600A480830006820F01B
:102D500003000849083108600846006840F0020096
:102D6000086000BF03480830006800F00C00082825
:102D7000F8D10CBD003802400070004008544007F4
:102D8000003C024010B500F0EBF810BD10B515483E
:102D9000006840F47000134908601348006840F070
:102DA00001001149086000200F49083108600E48F1
:102DB00000680E4908400C4908600D48091D08606C
:102DC000081F006820F48020091F086000200649C1
:102DD0000C310860FFF760FF4FF000600149803957
:102DE000086010BD88ED00E000380240FFFFF6FEED
:102DF0001030002410B50121880700F054F898B174
:102E00000121880700F040F801202AF003FF07485D
:102E10000078052805DA05480078401C0349087049
:102E200002E001200149087010BD000000000020F0
:102E30001FB501210846FEF7ABFD40F2E7300290D6
:102E40005320ADF804000020ADF80600ADF80C00EA
:102E500001A94FF0804000F041F80122114690078F
:102E600000F032F81C208DF8000001208DF80100E0
:102E70008DF802008DF803006846FEF721FD012160
:102E8000880700F004F81FBDCA430282704721B1D1
:102E9000028842F00102028004E002884FF6FE73CD
:102EA0001A400280704730B50246002000230024FB
:102EB000158A05EA0103958905EA010413B10CB1ED
:102EC000012000E0002030BD1AB183890B438381CB
:102ED00002E083898B4383817047000000220288CF
:102EE000184B98420ED0184B98420BD0B0F1804F3F
:102EF00008D0164B984205D0154B984202D0154B7E
:102F0000984204D14FF68F731A404B881A43124BE4
:102F1000984207D0114B984204D04FF6FF431A4015
:102F20000B891A4302804B68C3620B880385054BEB
:102F3000984202D0044B984201D18B7A0386012338
:102F400083827047000001400004014000040040FB
:102F500000080040000C0040001000400014004039
:102F60000448006820B103480068401E0149086019
:102F7000704700000800002009488088002806DD0E
:102F800007488088F02802DA05488088704704489E
:102F90008088782801DDF020F8E70020F6E70000BF
:102FA000EC0200200A48C088002807DD0848C088D5
:102FB000B0F5A07F02DA0648C08870470448C08890
:102FC000A02802DD4FF4A070F7E70020F5E700002D
:102FD000EC0200201CB501212620FEF7B9FC0620DA
:102FE000009000208DF804008DF8060003208DF875
:102FF000050001208DF8070069460F48FDF7B0FF76
:10300000012000908DF8040069460B48FDF7A8FFE9
:103010002020009001208DF8040069460748FDF744
:103020009FFF4FF40060009001208DF80400694676
:103030000348FDF795FF1CBD000402400008024054
:103040000014024010B5FFF7C5FF3049881E00F09C
:10305000F5F82F4800882F490988401A00EE100A19
:10306000B8EEC00ADFED2C0A80EE801A2748801FD8
:1030700080ED031A2648008826490988084400EE96
:10308000100AF8EEC00A2148801F90ED031A9FED48
:10309000220A01EE600AF0EE000A80EE201ABDEE70
:1030A000C10A10EE100A00B21849891F88821B4815
:1030B000408817494988401A00EE100AB8EEC00A45
:1030C000DFED170A80EE801A1048801F80ED041A89
:1030D000124840880E494988084400EE100AF8EE6C
:1030E000C00A0A48801F90ED041A9FED0D0A01EEF8
:1030F000600AF0EE000A80EE201ABDEEC10A10EE62
:10310000100A00B20149891FC88210BDF2020020D6
:103110001800002010000020000070431400002060
:103120000000A0430448007A00F0800008B10120AC
:1031300070470020FCE70000EC02002070B5064656
:1031400000201E4908601E49C1F8AC021D490860F4
:10315000304600F071F90620FDF706FD00201A49FF
:10316000C1F880020120FDF7FFFC0120134908602F
:10317000FDF7FAFC00201449C1F880020024002564
:1031800014E04FF6FF7000EA440400200B49086089
:103190000120FDF7E9FC01200B49C1F88002074836
:1031A00078380068204484B2681CC5B2102DE8DB72
:1031B0002411012003490860204670BD80824042EE
:1031C000008042429402414200804042FEB50746E0
:1031D000002606E03846FFF7B1FF2DF81600701CF8
:1031E000C6B2052EF6DB002015E000210FE03DF809
:1031F00010203DF811309A4207DD3DF810403DF8AF
:1032000011202DF810202DF811404A1CD1B20529AB
:10321000EDDB411CC8B20428E7DB0025012005E0F6
:103220003DF8101029448DB2411CC8B20428F7DBC8
:10323000032095FBF0F084B22046FEBD70B5044635
:103240000D46D020FFF7C2FF20809020FFF7BEFF81
:10325000288070BD7FB504460D4602A903A8FFF77C
:10326000EDFF694601A8FFF7E9FFBDF80400BDF8CE
:103270000C10884206DCBDF80C10BDF8040032309A
:1032800081420CDBBDF80C00BDF80410884237DC2D
:10329000BDF80410BDF80C003230814230DABDF8C0
:1032A0000000BDF80810884206DCBDF80810BDF823
:1032B0000000323081420CDBBDF80800BDF8001080
:1032C00088421DDCBDF80010BDF808003230814294
:1032D00016DABDF80C10BDF80420881800EBD07188
:1032E000C1F34F012180BDF80810BDF800208818F7
:1032F00000EBD071C1F34F012980012004B070BDF3
:103300000020FBE710B504464748006800286CD150
:1033100024B14649881EFFF79DFF56E04349881EA9
:10332000FFF798FF4148801FB0F9140000EE100A23
:10333000B8EEC00A3D48801F90ED031A808800EE69
:10334000900AF8EE600A01EE200ABCEEC00A10EE08
:10335000100A3649891F88800846B0F9160000EE29
:10336000100AB8EEC00A084690ED041AC08800EEB4
:10337000900AF8EE600A01EE200ADFED2D0A30EE29
:10338000C00AB5EEC00AF1EE10FA15D00846B0F941
:10339000160000EE100AB8EEC00A084690ED041AB6
:1033A000C08800EE900AF8EE600A01EE200ADFED18
:1033B000200A30EEC00A01E09FED1E0ABCEEC00AF2
:1033C00010EE100A1949891FC8801848801F007A1A
:1033D00000F0800050B9C0201449891F08720846C7
:1033E000808808800846C088488017E00F48801F02
:1033F000007A00F0800040B10C48801F007A20F075
:1034000080000A49891F087208E000200749891FC7
:10341000088048804FF6FF708880C8800348801F6E
:10342000007A00F0800010BD04824042F2020020C9
:103430000000A0430000000070B50446002510E025
:10344000E009094908606006040E00200749C1F838
:1034500080020120FDF788FB012005490860681CF7
:10346000C5B2082DECDB70BDAC8242420080404208
:103470008082404221B1828942F40052828104E07C
:1034800082894DF6FF731A40828170470246002000
:10349000B1F5007F00D100BF13880B400BB10120B4
:1034A00000E00020704700002DE9FF4705460E466A
:1034B0000024A14600BFA046B08900B100BF2C8AFD
:1034C00024F44054F08804432C82AC8941F20C600F
:1034D0008443B08831890843718908430443AC812F
:1034E000AC8A24F44074B0890443AC826846FEF789
:1034F000B1FA2048854202D01F48854202D1DDF84A
:103500000C9001E0DDF80890A88900F4004040B17B
:1035100009EBC90000EB091031684900B0FBF1F775
:1035200007E009EBC90000EB091031688900B0FB26
:10353000F1F76420B7FBF0F004012009642101FBDE
:103540001078A88900F4004040B1322000EBC80098
:10355000B0FBF1F000F00700044308E0322000EB7C
:1035600008106421B0FBF1F000F00F0004432C813F
:10357000BDE8FF870010014000140140C1F30802BC
:103580008280704700BFFEE70FB4054B10B503A95A
:10359000044A029801F028FF10BC5DF814FB0000FB
:1035A0000D3B0108D80200200FB4084B10B504A948
:1035B00002AA039801F018FF044602A9002001F0B6
:1035C000EFFF204610BC5DF814FB0000A155000879
:1035D00002E008C8121F08C1002AFAD170477047DC
:1035E000002001E001C1121F002AFBD1704770B515
:1035F0000446002508E02168481C2060087830381F
:1036000005EB850100EB41052168087800F004F81E
:103610000028F0D1284670BD0146302903DB392946
:1036200001DC012070470020FCE7000010B54421B8
:10363000074801F02AF800221E2106482AF052FB12
:103640000549086002F0D4FC00200449087010BD50
:10365000CC280020D1600008EC010020E801002007
:103660002DE9F04F87B007460C46154629462046FF
:1036700000F066F920B94FF0FF3007B0BDE8F08FD9
:1036800000222946204600F0FDF808B10020F4E7AA
:103690000026204615F0F5FB401E00B2049020469F
:1036A00015F060FB401E00B2039068886188401AE4
:1036B0000FFA80FABAF1000F16DD2088ADF8140079
:1036C0006088ADF81600A088ADF8180060885044F6
:1036D00000B2ADF81A003046711C4EB207EBC000C4
:1036E0000599016006994160E8886188411A03984C
:1036F000401A0FFA80FBBBF1000F1CDDB5F9060084
:10370000B4F90610884216DA2088ADF81400E8886B
:10371000ADF81600A088ADF81800E888584400B24B
:10372000ADF81A003046711C4EB207EBC000059987
:10373000016006994160B5F90200B4F902108842AF
:1037400002DDB5F9020001E0B4F902008046B5F9E6
:103750000600B4F90610884202DAB5F9060001E065
:10376000B4F9060002900298A0EB08000FFA80F965
:1037700028882188401A00B20190019800281BDD9A
:10378000B9F1000F18DD2088ADF81400ADF81680EF
:1037900021880198084400B2ADF8180008EB090030
:1037A00000B2ADF81A003046711C4EB207EBC000F3
:1037B0000599016006994160A8882188411A0498FA
:1037C000401A00B200900098002818DDA888ADF8D3
:1037D0001400ADF81680A9880098084400B2ADF82E
:1037E000180008EB090000B2ADF81A003046711C51
:1037F0004EB207EBC0000599016006994160304662
:103800003BE730B50346B1F90040B2F90050AC4295
:1038100002DDB1F9004001E0B2F900401C80B1F9CD
:103820000240B2F90250AC4202DDB1F9024001E0BF
:10383000B2F902405C80B1F90440B2F90450AC42E4
:1038400002DAB1F9044001E0B2F904409C80B1F918
:103850000640B2F90650AC4202DAB1F9064001E086
:10386000B2F90640DC800120B3F90040B3F90450FE
:10387000AC4205DCB3F90240B3F90650AC4200DDBE
:10388000002030BDF8B504460D4616460027B4F9B1
:103890000000B5F90010884212DBB4F90200B5F956
:1038A000021088420CDBB4F90400B5F90410884218
:1038B00006DCB4F90600B5F90610884200DC0127E1
:1038C0000FB90020F8BD0EB90120FBE72088ADF844
:1038D00000006088ADF8020032466946284600F0D4
:1038E000A7F808B90020EDE7A088ADF800006088CF
:1038F000ADF8020032466946284600F099F808B94A
:103900000020DFE72088ADF80000E088ADF8020075
:1039100032466946284600F08BF808B90020D1E706
:10392000A088ADF80000E088ADF802003246694694
:10393000284600F07DF808B90020C3E70120C1E760
:103940000246B2F90000B1F90430984213DCB2F932
:103950000400B1F9003098420DDBB2F90200B1F970
:103960000630984207DCB2F90600B1F902309842FD
:1039700001DB012070470020FCE7F8B504460D4646
:103980001646B4F90400B5F90010884211DBB4F909
:103990000600B5F9021088420BDBB4F90000B5F956
:1039A0000410884205DCB4F90200B5F9061088421B
:1039B00001DD0120F8BD0EB90020FBE72088ADF83D
:1039C00000006088ADF8020032466946284600F0E3
:1039D0002FF808B10020EDE7A088ADF8000060885E
:1039E000ADF8020032466946284600F021F808B1D9
:1039F0000020DFE72088ADF80000E088ADF8020085
:103A000032466946284600F013F808B10020D1E795
:103A1000A088ADF80000E088ADF8020032466946A3
:103A2000284600F005F808B10020C3E70120C1E7EF
:103A30002DE9FC5F05460E4614464FF0000AB6F924
:103A40000000B5F90010884213DBB6F90000B5F9A3
:103A5000041088420DDCB6F90200B5F90210884264
:103A600007DBB6F90200B5F90610884201DC4FF019
:103A7000010ABAF1000F02D10020BDE8FC9F002C22
:103A800001DC0120F9E7284615F0FBF9834600EB3D
:103A9000DB704710284615F065F9834600EBDB70B4
:103AA0004FEA6008474501DA384600E04046814663
:103AB0004C4500DD4C462888ADF80000288820449D
:103AC00000B2ADF804006888ADF8020068882044B0
:103AD00000B2ADF80600002231466846FFF7A8FFA5
:103AE00080B1BDF80400204400B2ADF80400BDF878
:103AF0000600204400B2ADF806003146684626F0C4
:103B00007DFCBAE7E888001B00B2ADF80200E88847
:103B1000ADF80600002231466846FFF789FF80B104
:103B2000BDF80400204400B2ADF80400BDF8020066
:103B3000001B00B2ADF802003146684626F05EFC7C
:103B40009BE7A888001B00B2ADF80000A888ADF87C
:103B50000400002231466846FFF76AFF80B1BDF8D5
:103B60000000001B00B2ADF80000BDF80200001B11
:103B700000B2ADF802003146684626F03FFC7CE713
:103B80006888ADF802006888204400B2ADF80600ED
:103B9000002231466846FFF74BFF80B1BDF80000B8
:103BA000001B00B2ADF80000BDF80600204400B2D2
:103BB000ADF806003146684626F020FC5DE701209E
:103BC0005BE710B5B1F90030B2F90040A34202DA68
:103BD000B1F9003001E0B2F900300380B1F90230F0
:103BE000B2F90240A34202DAB1F9023001E0B2F9BF
:103BF00002304380B1F90430B2F90440A34202DD3F
:103C0000B1F9043001E0B2F904308380B1F9063033
:103C1000B2F90640A34202DDB1F9063001E0B2F983
:103C20000630C38010BD0000F8B5054629F0E2FF5C
:103C300007460020009035B14C49E86808602846E6
:103C40002AF068F903E018F02DF848490860474960
:103C50000968086926F05AFA44480068406920B1AA
:103C600042490968486926F051FA40490968C8691B
:103C700026F04CFA3D490968086A26F047FA3B48A5
:103C80000068006938B9002038490968A1F8500176
:103C900000BF00BFF8BD26F07BFC2DF003F82CF030
:103CA0003BFC32480068B0F85001002856D02F483D
:103CB00000680068007C00F0010040B32B480068F9
:103CC0000068C068406810B3002419E02748006805
:103CD00000F59870005D00B110E02448006800F520
:103CE000AC7000F034FD064620480068303000EB30
:103CF000C400016831604068706000BF601C84B21D
:103D00001A480068B0F85001A042DFDC00BF4FF451
:103D1000807116480068303020F0A8F9202113483F
:103D2000006800F5987020F0A1F900200F4909689B
:103D3000A1F85001384629F04FFF00900B48006869
:103D40000068406A50B1094909680868074909686C
:103D500009684B6A06490A68009998471FF0FEFEF9
:103D600000F03EF800F006F800BF93E7B400002032
:103D7000B000002010B5002416E0C4EBC4000C49CC
:103D800051F8200030B1C4EBC401094A52F82100B7
:103D90001FF096FFC4EBC401054A02EB81001C2111
:103DA00020F064F9601CC4B2042CE6DB10BD0000F6
:103DB000A82900200146094A10680BE042688A429F
:103DC00002D002688A4204D1027E22F00102521C13
:103DD000027640690028F1D1704700008800002079
:103DE0007047000010B50421014800F04EFC10BDE2
:103DF000C028002010B52021014800F046FC10BD6D
:103E0000D82800202DE9FF4704460D4616461F46D8
:103E1000DDE90C896FB9B8F5807F0AD100202080D8
:103E20006080681E00B2A080701E00B2E080BDE815
:103E3000FF8700200090019002900390ADF804509D
:103E4000ADF80A60ADF80C50ADF80E604B46424636
:103E50003946684626F008FA4B464246394601A8DC
:103E600026F002FA4B464246394602A826F0FCF9F3
:103E70004B464246394603A826F0F6F9BDF9000044
:103E8000BDF90410884202DABDF9000001E0BDF975
:103E90000400BDF90810BDF90C20914202DABDF909
:103EA000081001E0BDF90C1088420BDABDF90000E2
:103EB000BDF90410884202DABDF900000DE0BDF939
:103EC00004000AE0BDF90800BDF90C10884202DACE
:103ED000BDF9080001E0BDF90C00801E00B2208091
:103EE000BDF90000BDF90410884202DDBDF90000F3
:103EF00001E0BDF90400BDF90810BDF90C209142A4
:103F000002DDBDF9081001E0BDF90C1088420BDD9F
:103F1000BDF90000BDF90410884202DDBDF90000C2
:103F20000DE0BDF904000AE0BDF90800BDF90C1070
:103F3000884202DDBDF9080001E0BDF90C00801CDB
:103F400000B2A080BDF90210BDF90600814202DA7C
:103F5000BDF9020001E0BDF90600BDF90A20BDF976
:103F60000E108A4202DABDF90A1001E0BDF90E1006
:103F700088420BDABDF90210BDF90600814202DA6F
:103F8000BDF902000DE0BDF906000AE0BDF90A1016
:103F9000BDF90E00814202DABDF90A0001E0BDF967
:103FA0000E00801E00B26080BDF90210BDF906004F
:103FB000814202DDBDF9020001E0BDF90600BDF954
:103FC0000A20BDF90E108A4202DDBDF90A1001E097
:103FD000BDF90E1088420BDDBDF90210BDF90600D7
:103FE000814202DDBDF902000DE0BDF906000AE0E4
:103FF000BDF90A10BDF90E00814202DDBDF90A00CB
:1040000001E0BDF90E00801C00B2E08000BF0EE7A9
:104010002DE9F743054616460024134C29F0EAFD26
:104020008046334629462046019A1DF007FA074686
:104030005FB900BF00BF2C21204620F017F84FF0D9
:104040000040A0620020BDE8FE830020A062E0697D
:1040500018B9404629F0C0FDE061E06908B90120C7
:10406000E0612046EFE70000FC28002010B5142195
:10407000114800F00AFB1DF093F9044600BF1CB97B
:1040800000BF00BF00BFFEE700BF14B900BF00BF04
:1040900010BD0A4920461DF06BFA094920461DF063
:1040A00069FA084920461DF067FA074920461DF0C5
:1040B0005DFA00BFECE70000E4280020510B020885
:1040C00025100208AD120208190B020870B504464B
:1040D0000D46102128461FF0C9FF206800780128EE
:1040E00004D1A08A2880E08A68800CE020680078EB
:1040F000022802D1E068686005E0206800780428A2
:1041000001D10A2068602068406820B120682946F3
:104110004268904701E000BF00BF70BD2DE9FE4F2F
:104120000446A08A18B9E08A08B9BDE8FE8FE66A9D
:1041300096B920460EF06CFC064606B9F5E7204617
:1041400012F0ECF90022092130461BF04BFD60789B
:10415000C0F3400000B1E8E700274FF48078B14693
:1041600016E00021484623F0F1FB384407B2002155
:10417000484623F027FC8246C0170AEB1060001265
:1041800000FB08F00FFA80F8484621F075FF8146E1
:10419000B9F1000FE5D117B9B8F5807F11D0784299
:1041A00007B24FF4803090FBF8F00FFA80F800204F
:1041B00000906B464246394604F1140026F054F84C
:1041C00000BF00200290019094F8400000F00F0022
:1041D000032812D1304622F06DF88246304621F095
:1041E000F1FF834603200090B4F9141053465A4659
:1041F00030460DF085F9029012E0304622F0DCF8EE
:104200008246304621F050FF83460C200090B4F9DE
:1042100016105B46524630460DF072F9019000BF11
:10422000304621F0A1FF054605F0010028B9BDF98F
:104230000800002801DD0020029005F0020028B9E6
:10424000BDF90800002801DA0020029005F0040002
:1042500028B9BDF90400002801DD0020019005F017
:10426000080028B9BDF90400002801DA00200190F7
:1042700001AA02A920462DF0AFFABDF90420BDF92C
:104280000810304600F0FCFA6078C0F3400000B13E
:104290004BE7208BBDF80810084401B22183608BE6
:1042A000BDF80410084401B2618300BF3DE72DE969
:1042B000F84F0446D4F82CB0BBF1000F01D1BDE893
:1042C000F88F94F8400000F00F0000B9F7E71DF0F8
:1042D00081FC06463068477E4021584623F02CFD7D
:1042E00010B90021E183A183584622F051F880469D
:1042F000584622F057F8054694F8400000F00F00A9
:104300000C2843D10021A1831DBBB4F91E00C7F1C5
:1043100064014843642190FBF1F001B2E183584607
:1043200021F0C2FE8146584622F046F882460C2013
:104330000090B4F91E104B46524658460DF0E0F876
:10434000E083B4F91E2000231946584625F0A0F852
:1043500069E020462DF097FA00900021E1836A463B
:1043600020462DF039FABDF9003041F6FF72514276
:1043700058460EF03FFD8146BDF80000484402B2A9
:1043800001230021584625F083F84CE094F84000C2
:1043900000F00F00032846D10021E183B8F1000F9F
:1043A00023D1B4F91C00C7F164014843642190FB98
:1043B000F1F001B2A183584621F004FF814658462E
:1043C00021F078FF824603200090B4F91C10534678
:1043D0004A4658460DF094F8A083B4F91C10002307
:1043E0001A46584625F054F81DE020462DF030FAC4
:1043F00000900021A1830022694620462DF0ECF9AF
:10440000BDF9003041F6FF72514258460EF058FC9B
:104410008146BDF80000484401B2012300225846FD
:1044200025F036F800BFA08B002860D1E08B002873
:104430005DD11DBB584621F0BFFF8146584621F093
:1044400033FE8246B9F1000F02DCBAF1000F14DD31
:10445000B9F1000F06DA01234A460021584625F03B
:1044600017F80AE0BAF1000F07DA0123CAF10000D9
:1044700002B20021584625F00BF800BFB8F1000F3A
:1044800023D1584621F09EFE8146584621F012FF66
:104490008246B9F1000F02DCBAF1000F14DDB9F168
:1044A000000F06DA012300224946584624F0F0FFA7
:1044B0000AE0BAF1000F07DA01230022CAF1000076
:1044C00001B2584624F0E4FF00BF32460A215846A4
:1044D0001BF088FB6078C0F3400000B1EFE694F871
:1044E000400020F00F0184F840100021E16200BF7D
:1044F000E5E62DE9FF4104460F4614B917F0D2FB5B
:1045000004460CB9BDE8FF81204617F064FC00B9F1
:10451000F8E794F82800C0F3800010B100BF00BF96
:10452000F0E71FB90020A4F85001EBE70020ADF838
:104530000800ADF80A00204617F0CCFB401E00B280
:10454000ADF80C00204617F02BFC401E00B2ADF871
:104550000E0002AA39466846FFF753F9064606B927
:10456000D0E72068007CC0F3400060B1029820636F
:10457000039860630120A4F85001606810B160687E
:1045800029F0D4FCBEE72068806918B1206869462C
:104590008269904700250BE004F1300000EBC50173
:1045A00000226846FFF76EF900B1ABE7681C85B2E0
:1045B000B4F85001A842EFDCB4F85001202809DA21
:1045C000B4F8502104F1300101EBC200694614F047
:1045D00030FB0BE00020A4F85001B4F8502104F1A6
:1045E000300101EBC20002A914F023FBB4F8500122
:1045F000401CA4F85001606810B1606829F096FC76
:1046000000BF7FE770B50546284600F013F8044662
:1046100000260CE02146284600F024F806462146F4
:10462000284600F0C0F820461FF04AFB3446002C14
:10463000F0D170BD014609B9002070474868FCE719
:1046400070B5064600243046FFF7F4FF054605E046
:10465000641C2946304600F005F80546002DF7D1C8
:10466000204670BD02460B461068001D03441868C2
:10467000704702460B4610680344186870470146AD
:1046800009B9002070478868FCE700224260826018
:10469000CA1C22F003010160704770B5044621680E
:1046A00001F108001FF02EFA0546A5B100222946A7
:1046B00020462AF061FE2946204662682AF04EFE16
:1046C000606820B12A46204661682AF055FE656080
:1046D000A06800B9A560284670BD2DE9F0410646E6
:1046E0000D4606B115B90020BDE8F0813046FFF750
:1046F000A1FFA84206D13046FFF7CFFF044624BBF6
:104700000020F1E7316801F108001FF0FBF90446D1
:104710000CB90020E8E729463046FFF7AAFF074614
:104720002246394630462AF019FE3A46214630469E
:104730002AF022FE2246294630462AF01DFE2A464D
:10474000214630462AF00AFE00BF2046CCE770B56D
:104750000446216801F108001FF0D4F90546A5B10F
:104760000022294620462AF0F9FD29462046A26863
:104770002AF002FEA06820B12A462046A1682AF04D
:10478000EDFDA560606800B96560284670BD014612
:1047900009B901207047486818B9886808B901202C
:1047A000F8E70020F6E72DE9F04104460D460CB984
:1047B000BDE8F0812046FFF73DFFA8420FD1294612
:1047C0002046FFF74FFF6060606810B90020A060CE
:1047D0002FE00022204661682AF0CEFD29E0204625
:1047E000FFF74DFFA8420FD129462046FFF741FFB2
:1047F000A060A06810B9002060601AE00022204686
:10480000A1682AF0ABFD14E029462046FFF731FFEE
:10481000064629462046FFF725FF07463A46314619
:1048200020462AF09BFD3246394620462AF0A4FD58
:1048300000BF00BFBCE710B504462068806818B10F
:1048400020682146826890472068006828B1206867
:10485000006820602046FFF7EEFF10BD0146886823
:1048600018B18868B0F9160070470020FCE70146CF
:10487000886818B18868807E800970470020FCE74E
:104880002DE9F04104460D4616461DB916B9012022
:10489000BDE8F081204620F007FBA068008A28448C
:1048A00000B2A1680882A068408A304401B2A068C2
:1048B0004182012332462946204623F0D9FE0022B8
:1048C0000B2120461BF08EF90746012F01D03846F8
:1048D000DEE7204623F0F4FD0120D9E7F7B582B0EA
:1048E00004460E4614B9049805B0F0BD00BF62221C
:1048F0003146204622F0B0FE0190019D00BFBDB1BF
:104900002868A8B100BF63223146204622F0A4FEE9
:1049100001900198C0B207464FB13A462B6828462D
:10492000049998470190BDF80400ADF8100000BF4D
:104930000498D9E72DE9F04F95B004468B4691468F
:104940009A461E9D608C20F0080008306084A4F810
:1049500020902A895946204622F07EFE1490A4F821
:1049600020A02A895946204622F076FE1390608CBA
:1049700020F008006084DDE9131088420CD1DDE9E5
:104980001310884208D1BDF85000BDF84C10884281
:1049900002D115B0BDE8F08FA4F820902A895946BD
:1049A000204622F059FE1490A4F820A05946204633
:1049B00010F01EFB12902989129A1068149A27F0A1
:1049C0007FFD28890B2833D147F6FF711498884260
:1049D00002D0139888422BD1204623F050F9009042
:1049E00000EBD0704710204621F0F6FA009000EB63
:1049F000D0704FEA600847F6FF711498884208D1DA
:104A0000781C08F10101884200DA01E008F1010098
:104A1000149047F6FF711398884208D1781C08F16A
:104A20000101884200DA01E008F10100139000BFA3
:104A30002348FFF732FE064600BF1EB900BF00BF85
:104A400000BFFEE700BF06B9A3E71498F060139813
:104A5000306134602889B080C6F808B001A813F02E
:104A600071F9314601A813F05AFA164901A813F05A
:104A700013FA1548039000BF144901A813F01EFA59
:104A8000FF22002101A813F034FA298801A813F0AD
:104A900020FA698801A813F0F8F9E868089000BFC7
:104AA00001A8002190F8422061F3000280F8422022
:104AB00000BF2869079001A813F04AFA00BF68E711
:104AC000F028002055530308FD5503082D55030811
:104AD00010B514210148FFF7D8FD10BDF0280020C3
:104AE0002DE9FE4F04460F4690464FF00009002581
:104AF0004CE1E06800EBC5004068C0F3406000B1E5
:104B000043E1E16801EBC501496821F07F4025F0F0
:104B1000C2FA064626EA070008B9012000E0002094
:104B2000029026EA080008B9012000E00020019068
:104B3000DDE90101814270D0E06850F835A04FF006
:104B4000000B6A461021504627F092F810B14FF042
:104B5000010B98E06A461121504627F089F810B100
:104B60004FF0010B8FE06A461221504627F080F883
:104B700010B14FF0010B86E06A461321504627F032
:104B800077F810B14FF0010B7DE06A4615215046D1
:104B900027F06EF810B14FF0010B74E06A46142153
:104BA000504627F065F810B14FF0010B6BE06A46F4
:104BB0000A21504627F05CF810B14FF0010B62E07B
:104BC0006A466B21504627F053F810B14FF0010BA5
:104BD00059E06A466C21504627F04AF810B14FF070
:104BE000010B50E06A460121504627F041F810B110
:104BF0004FF0010B47E06A460421504627F038F891
:104C000010B14FF0010B3EE06A460221504627F0FA
:104C10002FF818B14FF0010B35E0B5E06A460321DB
:104C2000504627F025F810B14FF0010B2BE06A46F3
:104C30000521504627F01CF810B14FF0010B22E07F
:104C40006A460621504627F013F810B14FF0010BC9
:104C500019E06A463221504627F00AF810B14FF0A9
:104C6000010B10E06A466E21504627F001F810B1A2
:104C70004FF0010B07E06A466D21504626F0F8FF21
:104C800008B14FF0010BBBF1000F02D00320BDE8CB
:104C9000FE8F6A466921504626F0EAFF10B14FF0B8
:104CA000020970E06A466A21504626F0E1FF10B121
:104CB0004FF0020967E06A466E21504626F0D8FFA1
:104CC00010B14FF002095EE06A466D21504626F0B1
:104CD000CFFF10B14FF0020955E06A463721504628
:104CE00026F0C6FF10B14FF002094CE06A463821A9
:104CF000504626F0BDFF10B14FF0020943E06A466E
:104D00003521504626F0B4FF10B14FF002093AE0C9
:104D10006A464021504626F0ABFF10B14FF0020921
:104D200031E06A464521504626F0A2FF10B14FF00F
:104D3000020928E06A464121504626F099FF10B149
:104D40004FF002091FE06A464221504626F090FFCC
:104D500010B14FF0020916E06A464321504626F092
:104D600087FF10B14FF002090DE06A464921504615
:104D700026F07EFF10B14FF0020904E0B9F1000FF8
:104D800001D14FF0010900BF00BF6D1C608CC0F362
:104D90000510A8423FF6ADAE484678E701480068E6
:104DA00070470000B400002070470146C1F30412B0
:104DB000072A00DD0722D0B27047000001464FF6F7
:104DC000FF70814201D11F20704709B90020FBE725
:104DD000712902DA0948405CF6E7A1F1710081B25D
:104DE0000748006838B107480068814203D2044888
:104DF0000068405CE8E70020E6E70000DCC103084B
:104E0000100200202402002010B518210348FFF7EB
:104E10003CFC012028F0A2FF10BD00009C280020CF
:104E20002DE9F04105460F4616460DB9BDE8F08163
:104E30002846FBF72AFA8046394628460A4A12686D
:104E400090470746E8193146074A126890470646D8
:104E50003C4603E0A019285C2855641CA8EB06001A
:104E6000A042F7D200BFE1E7540200202DE9F04153
:104E700006460C4617461D4629463046084A126823
:104E800090472060206830B1296888190021044AC1
:104E90001268904700E000203860BDE8F081000013
:104EA0004C0200202DE9F04F87B004460F46924691
:104EB0009846DDE910560DB1002028801CB900206D
:104EC00007B0BDE8F08F207808B90020F8E70FB9E7
:104ED0000020F5E74FF0000906F0020010B906F0D7
:104EE000040098B1002000E0401C215C0A2905D094
:104EF000215C0D2902D0215C0029F5D1215C01B192
:104F0000401C15B14FF0FF312980D9E706F00200AF
:104F100008B141F6FF7800200690059038E00020A7
:104F20000490059808B9012000E0002006A904AA11
:104F3000CDE90062CDE9021005996018434652465A
:104F4000394629F073F983460498A8EB00000FFA5C
:104F500080F8049848440FFA80F9BBF1000F00D1A3
:104F60001CE005985844059020780A2802D0207843
:104F70000D2800D112E00598205C0A2803D005987E
:104F8000205C0D2803D10598401C059006E000BF69
:104F90000598205C10B1B8F1000FC0DC00BF059887
:104FA00070B905A92046094A12689047834635B171
:104FB0000022594638461AF099FF0FFA80F900BFCF
:104FC0000DB1A5F8009005987AE700004C0200208A
:104FD0002DE9F04706468846174606B10FB9BDE8E9
:104FE000F0873046FBF751F981463846FBF74DF91B
:104FF000044604B9F3E704EB090A414630460B4A7C
:10500000126890478046554603E0281B305C705577
:105010006D1E08EB0400A842F7D906EB08002246F3
:1050200039461EF0DDFF00BFD9E700005402002022
:10503000024600200FA31B788B4211D113781BB9B5
:105040000123137001200BE01378012B02D1002300
:10505000137005E01378022B02D100231370012096
:105060001378012B04D1202901D1022313700120D0
:10507000704700002300000073B582B00646039815
:105080000190324600210846019B29F0EFFB0546BE
:10509000002001900024681C1EF034FD044600BF6F
:1050A0001CB900BF00BF00BFFEE700BF14B900205D
:1050B00004B070BD002060553246691C2046039B39
:1050C00029F0D4FB2046F3E72DE9F04781460E4650
:1050D00014461F46DDF820A035461BE0600800FBA3
:1050E000075529464846D047B0F1000809DD04F0CD
:1050F000010080F00100C0EB5404E81905460646A3
:1051000008E0B8F1000F02DA6408354602E02846EC
:10511000BDE8F087002CE1D10020F9E72DE9FF4F31
:1051200085B08346DDE9158ADDE91349DDE91775A8
:10513000129E05F00200F8B94FB105F0010030B140
:10514000B9F1000F02D105F00C0000B17F1E03E0A1
:1051500030222046641C3254544501D2202CF7D30F
:1051600003E030222046641C325405F0010018B1DF
:10517000BC4201D2202CF4D305F01000B0B305F4EA
:10518000806050B94CB1544501D0BC4205D1641E79
:105190001CB1B8F1100F00D1641EB8F1100F09D185
:1051A00005F0200030B9202C04D278222046641C5F
:1051B000325415E0B8F1100F09D105F0200030B1DC
:1051C000202C04D258222046641C325408E0B8F146
:1051D000020F05D1202C03D262222046641C3254D7
:1051E000202C03D230222046641C3254202C16D2AC
:1051F000B9F1000F04D02D222046641C32540EE079
:1052000005F0040020B12B222046641C325406E035
:1052100005F0080018B120222046641C3254CDE964
:105220000275CDE90064584606A90EC900F0A2F83F
:1052300009B0BDE8F08F2DE9FF4F8FB08046DDE962
:105240001FABDDE91D96219D1C9C00270CB925F0A4
:10525000100505F4806000B1E4B100BFB4FBF6F1C5
:1052600006FB1141C8B20A2802DA00F1300107E05A
:1052700005F0200109B1412100E0612101440A3912
:10528000CBB239467F1C07AA5354B4FBF6F40CB1D9
:10529000202FE3D307A8CDE904AB8DE88102039664
:1052A0000695404610A90EC9FFF738FF13B0BDE8B8
:1052B000F08F2DE9FF4F8FB0DDE9217BDDF8908085
:1052C000209EDDE91C454FF00009002184EA010021
:1052D0006940084301D128F0100808F4806028B123
:1052E000002184EA0100694008432DD000BF324606
:1052F0003B4620462946FAF765FF02F0FF0ABAF15D
:105300000A0F02DA0AF1300007E008F0200008B1C5
:10531000412000E0612050440A38C2B2484609F1F9
:10532000010907A90A5432463B4620462946FAF7A6
:1053300049FF04460D46002184EA01006940084304
:1053400002D0B9F1200FD2D32398CDE9036BCDE978
:10535000050807A91E98CDE9001902900FA80FC8EB
:10536000FFF7DCFE13B0BDE8F08F9A4200D28854FC
:10537000704770472DE9FF5F05461446DDE90EA62C
:10538000DDE91087A34607F0020078B907F00100B5
:1053900060B9B14607E02246641C2020039B0199B6
:1053A000A84709F10109C145F5D300BF08E022462D
:1053B000641C711E0E461AF80100039B0199A84750
:1053C000002EF4D107F0020050B105E02246641C23
:1053D0002020039B0199A847A4EB0B004045F5D37F
:1053E000204604B0BDE8F09F2DE9FF4F8BB09A46F0
:1053F0000F460546002606E025280BD052460D999B
:1054000090476D1C761C28780028F5D10FB03046E7
:10541000BDE8F08F0024A0460122604900E004436B
:1054200015F8013F203B02FA03F00842F7D1287833
:105430002E2817D115F8010F44F004042A280ED0A5
:105440006FF02F022878A0F1300109290AD808EB63
:10545000880102EB410100EB01086D1CF2E757F8EF
:10546000048B6D1C287869283ED006DC0028CDD03E
:1054700063280BD0642804D136E0732810D0752837
:105480004BD052460D999047761C85E017F8040BD7
:105490008DF8000000208DF80100E946012003E0AE
:1054A00057F8049B4FF0FF3061074FF0000401D420
:1054B0000AE0641C44450DDA8442FADB19F8041052
:1054C0000029F6D106E0641C8442FCDB19F80410C4
:1054D0000029F8D1264404E019F8010B52460D9931
:1054E0009047641EF8D257E001CF4FF00A0B002816
:1054F00002DA40422D2102E0210504D52B218DF84E
:105500002410012103E0E10705D02021F7E70DF188
:10551000200908910CE00021F9E701CF4FF00A0BB8
:10552000F9E75946FAF771FF01F1300209F8012D48
:105530000028F6D1ADEB090000F1200B600701D483
:105540004FF00108D84502DDA8EB0B0000E0002079
:105550008046002406E009A85246005D0D99904758
:10556000641C761C08988442F5DB04E03020524627
:105570000D999047761CB8F10001A8F10108F5DCFF
:1055800005E019F8010B52460D999047761CBBF1C6
:105590000001ABF1010BF4DC6D1C34E709280100BC
:1055A0000A68531C0B601070704700002DE9FF4F14
:1055B0008BB0074600250C9800B9FA4FEAE20E9826
:1055C000007825280AD02A466D1C0E990878DDE956
:1055D0000C13B8470E98401C0E90DBE20E98401C4E
:1055E0000E90002400BF0E9800782B2819D004DC00
:1055F00020281ED023282CD123E02D2809D03028A4
:1056000027D144F001040E98401C0E9001200A900E
:1056100022E044F002040E98401C0E9001200A90F3
:105620001AE044F004040E98401C0E9001200A90E9
:1056300012E044F008040E98401C0E9001200A90DD
:105640000AE044F010040E98401C0E9001200A90CD
:1056500002E000200A9000BF00BF0A980028C2D1D3
:1056600080460E990878FDF7D7FF20B10EA8FDF708
:10567000BEFF804612E00E9800782A280ED11899B5
:1056800001C91891002804DA44F00204C0F10008AE
:1056900000E080460E99491C0E9100BF4FF00009B2
:1056A0000E9800782E281FD144F480640E98401C78
:1056B0000E900E990878FDF7AFFF20B10EA8FDF708
:1056C00096FF814610E00E9800782A280CD1189990
:1056D00001C91891002801DD014600E0002189463A
:1056E0000E99491C0E9100BF0E9800786C280AD0C4
:1056F00004DC682816D06A2835D128E0742820D028
:105700007A2830D129E044F480740E98401C0E9021
:105710000E9800786C2804D144F400740E98401C54
:105720000E9021E044F080040E98401C0E900E98DC
:105730000078682804D144F040040E98401C0E9074
:1057400012E044F480740E98401C0E900CE044F477
:1057500000740E98401C0E9006E044F480740E987D
:10576000401C0E9000E000BF00BF0E980078692832
:105770001DD00EDC622821D006DC25287ED05028E2
:105780001AD058287BD115E0632879D06428F9D144
:105790000CE0732875D004DC6F280ED07028F1D18E
:1057A00009E0752804D07828ECD102E000BF00BFE2
:1057B00000BF00BF00BF00BF00BF00BF0E98007851
:1057C000782803D00E980078582801D1102623E0BD
:1057D0000E980078702803D00E98007850280CD1CD
:1057E000102644F0100444F480740E984078562833
:1057F00012D10E98401C0E900EE00E9800786F2883
:1058000001D1082608E00E980078622801D102260E
:1058100002E00A2624F010040E980078582803D0DD
:105820000E980078502801D144F020040E9800789A
:10583000692805D00E980078642801D024F00C0463
:1058400004F4806008B124F001040E9800786928FF
:1058500003D00E98007864287CD104F40070B8B3AB
:105860001898C01D20F007001890D0E900AB189AD6
:10587000083218920020CDE9069803E073E17CE13C
:10588000F2E01CE1CDE904600894BAEB00017BEB87
:10589000000001DA012000E000200021029008460B
:1058A000B1EB0A0170EB0B0002DA5046594605E0F5
:1058B00000200146B0EB0A0061EB0B01CDE90001CD
:1058C0002A463846DDE90C13FFF7F3FC0546C7E02E
:1058D000FFE704F48070D0B1189850F804AB18902A
:1058E0004FEADA70CDE9039802960594BAF1000FF9
:1058F00001DD514601E0CAF10001CDE900102A4660
:105900003846DDE90C13FFF796FC0546A8E004F0E5
:10591000400028B1189810F8041B1890C8B20DE088
:1059200004F0800028B1189830F8041B189008B2D1
:1059300004E0189800681899091D189182464FEAEA
:10594000DA70CDE9039802960594BAF1000F02DDF2
:10595000514602E00BE0CAF10001CDE900102A46F1
:105960003846DDE90C13FFF766FC054678E00E9833
:105970000078562818D1189850F804AB1890DAF827
:1059800004000068099009980090DAF800300D983A
:10599000421B0C9841193846FFF708FE05440020C9
:1059A00009905DE07353000804F40070D0B11898BA
:1059B000C01D20F00700CDE906980894189000203B
:1059C000CDE904600290189903C9189A0832189218
:1059D000CDE900012A463846DDE90C13FFF769FCE2
:1059E00005463DE004F4807098B10022CDE90398AB
:1059F00002960594189800681899091DCDE90002CF
:105A000018912A463846DDE90C13FFF714FC0546C9
:105A100026E004F0400028B1189810F8041B1890F4
:105A2000C8B20DE004F0800028B1189830F8041BCB
:105A3000189088B204E0189800681899091D189108
:105A400082460020CDE900A0CDE903980296059496
:105A50002A463846DDE90C13FFF7EDFB054600BF8B
:105A60000E98401C0E9093E0012604F0020050B9FD
:105A700005E02A466D1C2020DDE90C13B8473046AE
:105A8000761C4045F5D3189911F8043BD8B22A4644
:105A90006D1C1891DDE90C13B84704F0020050B1F9
:105AA00005E02A466D1C2020DDE90C13B84730467E
:105AB000761C4045F5D30E98401C0E9068E018986F
:105AC00050F804AB18905046B9F1000F01D0494688
:105AD00001E04FF0FF310A46014600E0491C0B7817
